:020000040000FA
:1000000070060010A9010000B1010000B30100005A
:10001000B5010000B7010000B901000000000000B8
:10002000000000000000000000000000BB01000014
:10003000BD01000000000000BF010000C101000080
:10004000C3010000C3010000C3010000C3010000A0
:10005000C3010000C3010000C3010000C301000090
:10006000C3010000C3010000C3010000C301000080
:10007000C3010000C3010000C3010000C301000070
:10008000C3010000C3010000C3010000C301000060
:10009000C3010000C3010000C3010000C301000050
:1000A000C3010000C3010000C3010000C301000040
:1000B000C3010000C3010000C3010000C301000030
:1000C000C3010000C3010000C301000000F002F8FA
:1000D00000F05AF80AA090E8000C82448344AAF188
:1000E0000107DA4501D100F04FF8AFF2090EBAE886
:1000F0000F0013F0010F18BFFB1A43F0010318475C
:10010000B8080000D80800000A444FF0000C10F8AE
:10011000013B13F0070408BF10F8014B1D1108BF85
:1001200010F8015B641E05D010F8016B641E01F825
:10013000016BF9D113F0080F1EBF10F8014BAD1C75
:100140000C1B09D16D1E58BF01F801CBFAD505E093
:1001500014F8016B01F8016B6D1EF9D59142D6D3ED
:10016000704700000023002400250026103A28BF15
:1001700078C1FBD8520728BF30C148BF0B60704719
:100180001FB51FBD10B510BD00F02FF81146FFF7C9
:10019000F7FF00F0A5FB00F04DF803B4FFF7F2FF06
:1001A00003BC00F055F800000948804709480047A3
:1001B000FEE7FEE7FEE7FEE7FEE7FEE7FEE7FEE717
:1001C000FEE7FEE704480549034A054B7047000077
:1001D00015030000CD000000700400107006001030
:1001E00070040010704770477047754600F02CF897
:1001F000AE4605006946534620F00700854618B014
:1002000020B5FFF7DFFFBDE820404FF000064FF0BC
:1002100000074FF000084FF0000B21F00701AC463B
:10022000ACE8C009ACE8C009ACE8C009ACE8C0095A
:100230008D46704710B50446AFF300802046BDE8F8
:100240001040FFF7AABF0000004870470C040010E0
:1002500001491820ABBEFEE72600020070470000EF
:1002600000B50E48006840F002000C49C439C1F8DE
:10027000C4000846D0F8A80120F00C000749E4317A
:10028000086000204FF040210867022000F0FEFACD
:100290004FF04021C8600220486000BDC4C00F403C
:1002A0002DE9F04104460D4616461F462A2000F06F
:1002B000A1FAC6F30F2000F0B5FAF0B200F0B2FADE
:1002C000C7F30F2000F0AEFAF8B200F0ABFA2B2023
:1002D00000F090FAC4F30F2000F0A4FAE0B200F0AE
:1002E000A1FAC5F30F2000F09DFAE8B200F09AFAE7
:1002F0002C2000F07FFABDE8F0810000FFFFFFFF37
:1003000010B540F23F13002240F2DF111046FFF714
:10031000C7FF10BD20204549086000BF4348006862
:1003200000F040000028F9D0032040499C390860C3
:1003300001203F49C1F80C013E483D498431086025
:10034000AA203B498C3108605520086001203849BB
:1003500080310860AA2036498C3108605520344924
:10036000C1F88C0000BF32488830006800F080601F
:100370000028F8D003202E4980310860AA202C499B
:10038000C1F88C0055202A498C31086000BF2848EC
:100390008830006800F040700028F8D023202449FD
:1003A000A4310860AA202249C1F8AC005520204998
:1003B000AC31086001201E49A0310860AA201C4908
:1003C000AC31086055201A49C1F8AC0000BF18488C
:1003D000A830006800F480600028F8D00320144999
:1003E000A0310860AA201249C1F8AC00552010497C
:1003F000AC31086000BF0E48A830006800F44070BF
:100400000028F8D000200949083108600849C1F8DF
:10041000AC0109480649C43108600020034928316D
:10042000086043F23A00024908607047A0C10F40DB
:1004300000C00F4031000200DE87280470B5054679
:10044000FFF75EFF00F0CAF9002403E0284600F041
:1004500095F9641CB4F5163FF8D300F0B5F970BDFA
:100460002DE9F84304460D4617469946DDF82080ED
:1004700000E0761CB85D0028FBD11048CDF8008064
:10048000B0F9000000EBC00000FB0640143002B2DF
:1004900005F1310003B22946204600F06DF84046D0
:1004A00000F0D8F94B463A4605F1140001B204F1C8
:1004B000140000B200F082F8BDE8F88308040010D0
:1004C0002DE9F05F80460D4691469A462748B0F9DF
:1004D0000000082202FB0050401E03B22348B0F97E
:1004E000000002FB0080401E01B22A464046FFF792
:1004F000D7FE00F073F9002634E04FF0000B2BE03C
:10050000002723E01A4800EBC900C05D304100F02D
:10051000010060B1002404E0504600F02FF9601C97
:1005200004B21248B0F900008442F5DB0DE000246B
:1005300006E01048B0F9000000F020F9601C04B299
:100540000A48B0F900008442F3DB7F1C082FD9DB96
:100550000BF101000FFA80FB0448B0F9000083455D
:10056000CEDB761C082EC8DBBDE8F09F0804001027
:1005700004000010060400102DE9F04707460C4661
:1005800015461E46DDF82090E81B311B00FB01FAE2
:10059000701E03B2681E01B222463846FFF780FE85
:1005A00000F01CF94FF0000804E0484600F0E6F8BF
:1005B00008F10108D045F8D3BDE8F0872DE9F041F6
:1005C00006460F461546984600240DE02A5DE100D8
:1005D000084BB3F9003001FB036108B24FF0FF3361
:1005E0003946FFF76DFF641C285D0028EED1BDE899
:1005F000F08100000804001010B55E48006C40F463
:100600003C505C490864084600685B490843594906
:1006100008600846806D40F43C508865012000F079
:100620001FF94FF400505349C8650A2000F018F92B
:100630004FF400504F498865642000F011F91120F3
:1006400000F0D8F8782000F00BF9D02000F0D2F8B4
:10065000072000F0E7F8422000F0E4F8182000F04E
:10066000E1F8D12000F0C6F8002000F0DBF8072008
:1006700000F0D8F8102000F0D5F8D22000F0BAF839
:10068000012000F0CFF8022000F0CCF8C02000F0EC
:10069000B1F8102000F0C6F83B2000F0C3F80020AD
:1006A00000F0C0F8022000F0BDF8112000F0BAF808
:1006B000C52000F09FF8032000F0B4F8C82000F037
:1006C00099F8002000F0AEF8322000F0ABF83620A8
:1006D00000F0A8F8452000F0A5F8062000F0A2F8E8
:1006E000162000F09FF8372000F09CF8752000F0ED
:1006F00099F8772000F096F8542000F093F80C2039
:1007000000F090F8002000F08DF8362000F072F82C
:100710000A2000F087F83A2000F06CF8552000F02D
:1007200081F82A2000F066F8002000F07BF8002015
:1007300000F078F8012000F075F83F2000F072F822
:100740002B2000F057F8002000F06CF8002000F09B
:1007500069F8012000F066F8E02000F063F87820E6
:1007600000F07EF8292000F045F82C2000F042F837
:1007700010BD000000C00920F08F7F0010B50446B6
:100780004FF480600449C865204600F007F84FF434
:1007900080600149886510BD00C009200849C96909
:1007A000084A1143064AD1610112C903C2B241EAA3
:1007B0000211034A92691143014A91617047000096
:1007C00000C00920F08F7F0010B54FF480700249FF
:1007D0008865FFF795FD10BD00C009204FF48070BB
:1007E0000349C8654000886580008865704700003F
:1007F00000C0092010B504464FF480700849C86550
:100800004000C8654000C86520B2FFF7C7FF4FF43D
:10081000806003498865401088654010886510BD78
:1008200000C0092010B504464FF480700849C8651F
:10083000400088654000C86520B2FFF7AFFF4FF465
:10084000806003498865401088654010886510BD48
:1008500000C009200149088070470000060400100C
:1008600002214FF0402251600121516000BF4FF042
:100870004021896800EB4002C2EBC012B1EBC20F0D
:10088000F5D300214FF04022516070470146114BD3
:100890001B68CB4003F0030232B1012A08D0022AC0
:1008A00009D0032A0FD10AE00B4B1B689A080AE013
:1008B000094B1A6807E0084B1B685A0803E0064B0F
:1008C0001B68DA0800BF00BF044BB2FBF3F3581EED
:1008D00070470000A8C10F400000001040420F0008
:1008E00008B5FFF717FDFFF7BBFCFFF785FE2448AF
:1008F000006C40F00100224908640846006A20F0BC
:10090000C05008620846806D40F0010088650020F4
:10091000FFF794FD0020FFF79DFF0F204FF0FF33FE
:1009200018A2502100900846FFF79AFD27E01448CE
:10093000406B00F0006078B90020FFF77FFD47F6BC
:100940000F004FF0FF3312A2502100900846FFF72E
:1009500087FDFFF739FF12E00948406B00F0805037
:1009600068B10020FFF76AFD1F204FF0FF330DA292
:10097000502100900846FFF773FDFFF725FFD6E7EB
:1009800000C00920437574652044656D6F21000027
:1009900049204C6F76652061626269203B33203CC0
:1009A0003300000049204C6F766520536172616806
:1009B000203B33203C330000D80900000000001029
:1009C0000C04000008010000100C00000C040010D2
:1009D00064020000640100001104FFE1F5059116B6
:1009E000183C3C181812186336361C36367F021233
:1009F0003620080C3E031E301F0C176333180C669C
:100A00006310081C361C6E3B336E4C060603381709
:100A10000C0606060C1819041A180C2136663CFF41
:100A20003C661D0C0C3F0C37512A0C1911923F19D2
:100A3000191B60302E13030110083E63737B6F6730
:100A40003E1C0C0E0C01123F4F1E33301C063308A7
:100A50001430331E1008383C36337F30782D3F0376
:100A60001F30101E1C06031F33081B3F334119485B
:100A70001A1E0D291019053D3E30180E5C99042AE6
:100A8000066629A0397F1903190C297A29601318E1
:100A90000C1A0C80167B7B7B031E1A0C41143F330F
:100AA0003310083F66663E66663F10083C660303E7
:100AB00003663C10081F36666666361F48087F4688
:100AC000161E16467F083B060F201473667C3A33C9
:100AD0003712332A1EBF130C1E1B7830A719901033
:100AE000086766361E36666710080F0606064666F5
:100AF0007F100863777F7F6B63631E63676F7B7311
:100B00000838081C36636363361C701A0650197F58
:100B10003D333B1E381029382E1E33070E38E84A65
:100B20002D58191F296B4908131E0C193E1C6B7F89
:100B300077501945194C29181983121E1E7F6331ED
:100B4000184C701A1E781406061E29FD14306040D9
:100B50002B1E1801121E2A082DA175FF0C0C181649
:100B60001E303E336E28080706063E66663B101BA5
:100B70003303801B383017191829101C3F031EB887
:100B80001A06D3320F180C6E33333E301F07063669
:100B90006E66B0120C3A0EA812301C3030308C3811
:100BA00008070666361E3667162918212D337F7F03
:100BB0006B7B2A1FC239501927311A3BF229513950
:100BC000501A78103B6E6660163E031E301F2F08C9
:100BD0000C3E0C0C2CA42937298839EA312E636B82
:100BE0007F7F36084A36D31918199021163F190C01
:100BF000263F1008380C0C070C0C3819F53904295D
:100C00000D1913112A6EDBB123FFFF320100000022
:04000005000001A94D
:00000001FF
